{
  "_format": "hh-sol-artifact-1",
  "contractName": "FDPCertificateRegistry",
  "sourceName": "contracts/FDPCertificateRegistry.sol",
  "abi": [
    {
      "inputs": [],
      "stateMutability": "nonpayable",
      "type": "constructor"
    },
    {
      "anonymous": false,
      "inputs": [
        {
          "indexed": false,
          "internalType": "address",
          "name": "oldAdmin",
          "type": "address"
        },
        {
          "indexed": false,
          "internalType": "address",
          "name": "newAdmin",
          "type": "address"
        }
      ],
      "name": "AdminTransferred",
      "type": "event"
    },
    {
      "anonymous": false,
      "inputs": [
        {
          "indexed": false,
          "internalType": "string",
          "name": "certificateId",
          "type": "string"
        },
        {
          "indexed": false,
          "internalType": "string",
          "name": "facultyName",
          "type": "string"
        },
        {
          "indexed": false,
          "internalType": "string",
          "name": "fdpName",
          "type": "string"
        },
        {
          "indexed": false,
          "internalType": "string",
          "name": "certificateHash",
          "type": "string"
        },
        {
          "indexed": false,
          "internalType": "uint256",
          "name": "issueDate",
          "type": "uint256"
        }
      ],
      "name": "CertificateIssued",
      "type": "event"
    },
    {
      "anonymous": false,
      "inputs": [
        {
          "indexed": false,
          "internalType": "string",
          "name": "certificateId",
          "type": "string"
        }
      ],
      "name": "CertificateRevoked",
      "type": "event"
    },
    {
      "inputs": [],
      "name": "admin",
      "outputs": [
        {
          "internalType": "address",
          "name": "",
          "type": "address"
        }
      ],
      "stateMutability": "view",
      "type": "function"
    },
    {
      "inputs": [
        {
          "internalType": "uint256",
          "name": "",
          "type": "uint256"
        }
      ],
      "name": "certificateIds",
      "outputs": [
        {
          "internalType": "string",
          "name": "",
          "type": "string"
        }
      ],
      "stateMutability": "view",
      "type": "function"
    },
    {
      "inputs": [
        {
          "internalType": "string",
          "name": "",
          "type": "string"
        }
      ],
      "name": "certificates",
      "outputs": [
        {
          "internalType": "string",
          "name": "certificateId",
          "type": "string"
        },
        {
          "internalType": "string",
          "name": "facultyName",
          "type": "string"
        },
        {
          "internalType": "string",
          "name": "fdpName",
          "type": "string"
        },
        {
          "internalType": "string",
          "name": "certificateHash",
          "type": "string"
        },
        {
          "internalType": "uint256",
          "name": "issueDate",
          "type": "uint256"
        },
        {
          "internalType": "address",
          "name": "issuerAddress",
          "type": "address"
        },
        {
          "internalType": "bool",
          "name": "isValid",
          "type": "bool"
        },
        {
          "internalType": "bool",
          "name": "exists",
          "type": "bool"
        }
      ],
      "stateMutability": "view",
      "type": "function"
    },
    {
      "inputs": [
        {
          "internalType": "string",
          "name": "_certificateId",
          "type": "string"
        }
      ],
      "name": "getCertificate",
      "outputs": [
        {
          "internalType": "string",
          "name": "certificateId",
          "type": "string"
        },
        {
          "internalType": "string",
          "name": "facultyName",
          "type": "string"
        },
        {
          "internalType": "string",
          "name": "fdpName",
          "type": "string"
        },
        {
          "internalType": "string",
          "name": "certificateHash",
          "type": "string"
        },
        {
          "internalType": "uint256",
          "name": "issueDate",
          "type": "uint256"
        },
        {
          "internalType": "address",
          "name": "issuerAddress",
          "type": "address"
        },
        {
          "internalType": "bool",
          "name": "isValid",
          "type": "bool"
        }
      ],
      "stateMutability": "view",
      "type": "function"
    },
    {
      "inputs": [],
      "name": "getTotalCertificates",
      "outputs": [
        {
          "internalType": "uint256",
          "name": "",
          "type": "uint256"
        }
      ],
      "stateMutability": "view",
      "type": "function"
    },
    {
      "inputs": [
        {
          "internalType": "string",
          "name": "_certificateId",
          "type": "string"
        },
        {
          "internalType": "string",
          "name": "_facultyName",
          "type": "string"
        },
        {
          "internalType": "string",
          "name": "_fdpName",
          "type": "string"
        },
        {
          "internalType": "string",
          "name": "_certificateHash",
          "type": "string"
        },
        {
          "internalType": "uint256",
          "name": "_issueDate",
          "type": "uint256"
        }
      ],
      "name": "issueCertificate",
      "outputs": [],
      "stateMutability": "nonpayable",
      "type": "function"
    },
    {
      "inputs": [
        {
          "internalType": "string",
          "name": "_certificateId",
          "type": "string"
        }
      ],
      "name": "revokeCertificate",
      "outputs": [],
      "stateMutability": "nonpayable",
      "type": "function"
    },
    {
      "inputs": [],
      "name": "totalCertificates",
      "outputs": [
        {
          "internalType": "uint256",
          "name": "",
          "type": "uint256"
        }
      ],
      "stateMutability": "view",
      "type": "function"
    },
    {
      "inputs": [
        {
          "internalType": "address",
          "name": "_newAdmin",
          "type": "address"
        }
      ],
      "name": "transferAdmin",
      "outputs": [],
      "stateMutability": "nonpayable",
      "type": "function"
    },
    {
      "inputs": [
        {
          "internalType": "string",
          "name": "_certificateId",
          "type": "string"
        }
      ],
      "name": "verifyCertificate",
      "outputs": [
        {
          "internalType": "bool",
          "name": "",
          "type": "bool"
        }
      ],
      "stateMutability": "view",
      "type": "function"
    },
    {
      "inputs": [
        {
          "internalType": "string",
          "name": "_certificateId",
          "type": "string"
        },
        {
          "internalType": "string",
          "name": "_hash",
          "type": "string"
        }
      ],
      "name": "verifyCertificateHash",
      "outputs": [
        {
          "internalType": "bool",
          "name": "",
          "type": "bool"
        }
      ],
      "stateMutability": "view",
      "type": "function"
    }
  ],
  "bytecode": "0x608060405234801561001057600080fd5b50336000806101000a81548173ffffffffffffffffffffffffffffffffffffffff021916908373ffffffffffffffffffffffffffffffffffffffff16021790555061206c806100606000396000f3fe608060405234801561001057600080fd5b50600436106100a95760003560e01c80637843bb79116100715780637843bb79146101505780638b23d8751461016e5780638f2b91ea1461019e578063ed0f2e75146101d5578063f138bb871461020b578063f851a4401461023b576100a9565b80630f9c774d146100ae578063142e1542146100de578063596b772f146100fa5780635e2213f71461011857806375829def14610134575b600080fd5b6100c860048036038101906100c39190611248565b610259565b6040516100d59190611305565b60405180910390f35b6100f860048036038101906100f3919061145c565b610305565b005b6101026104e3565b60405161010f91906114b4565b60405180910390f35b610132600480360381019061012d91906114cf565b6104e9565b005b61014e60048036038101906101499190611618565b610861565b005b6101586109fa565b60405161016591906114b4565b60405180910390f35b6101886004803603810190610183919061145c565b610a04565b6040516101959190611660565b60405180910390f35b6101b860048036038101906101b3919061145c565b610a79565b6040516101cc98979695949392919061168a565b60405180910390f35b6101ef60048036038101906101ea919061145c565b610d31565b6040516102029796959493929190611724565b60405180910390f35b610225600480360381019061022091906117af565b6110f3565b6040516102329190611660565b60405180910390f35b6102436111da565b6040516102509190611827565b60405180910390f35b6002818154811061026957600080fd5b90600052602060002001600091509050805461028490611871565b80601f01602080910402602001604051908101604052809291908181526020018280546102b090611871565b80156102fd5780601f106102d2576101008083540402835291602001916102fd565b820191906000526020600020905b8154815290600101906020018083116102e057829003601f168201915b505050505081565b60008054906101000a900473ffffffffffffffffffffffffffffffffffffffff1673ffffffffffffffffffffffffffffffffffffffff163373ffffffffffffffffffffffffffffffffffffffff1614610393576040517f08c379a000000000000000000000000000000000000000000000000000000000815260040161038a90611914565b60405180910390fd5b6001816040516103a39190611970565b908152602001604051809103902060050160159054906101000a900460ff16610401576040517f08c379a00000000000000000000000000000000000000000000000000000000081526004016103f8906119d3565b60405180910390fd5b6001816040516104119190611970565b908152602001604051809103902060050160149054906101000a900460ff1661046f576040517f08c379a000000000000000000000000000000000000000000000000000000000815260040161046690611a3f565b60405180910390fd5b60006001826040516104819190611970565b908152602001604051809103902060050160146101000a81548160ff0219169083151502179055507f266095b5af7e2323760fef151f1d78896740cd2cc1b73a6357ff9e4c3fdae740816040516104d89190611305565b60405180910390a150565b60035481565b60008054906101000a900473ffffffffffffffffffffffffffffffffffffffff1673ffffffffffffffffffffffffffffffffffffffff163373ffffffffffffffffffffffffffffffffffffffff1614610577576040517f08c379a000000000000000000000000000000000000000000000000000000000815260040161056e90611914565b60405180910390fd5b6001856040516105879190611970565b908152602001604051809103902060050160159054906101000a900460ff16156105e6576040517f08c379a00000000000000000000000000000000000000000000000000000000081526004016105dd90611aab565b60405180910390fd5b600085511161062a576040517f08c379a000000000000000000000000000000000000000000000000000000000815260040161062190611b17565b60405180910390fd5b600082511161066e576040517f08c379a000000000000000000000000000000000000000000000000000000000815260040161066590611b83565b60405180910390fd5b6040518061010001604052808681526020018581526020018481526020018381526020018281526020013373ffffffffffffffffffffffffffffffffffffffff168152602001600115158152602001600115158152506001866040516106d49190611970565b908152602001604051809103902060008201518160000190816106f79190611d4f565b50602082015181600101908161070d9190611d4f565b5060408201518160020190816107239190611d4f565b5060608201518160030190816107399190611d4f565b506080820151816004015560a08201518160050160006101000a81548173ffffffffffffffffffffffffffffffffffffffff021916908373ffffffffffffffffffffffffffffffffffffffff16021790555060c08201518160050160146101000a81548160ff02191690831515021790555060e08201518160050160156101000a81548160ff0219169083151502179055509050506002859080600181540180825580915050600190039060005260206000200160009091909190915090816108029190611d4f565b506003600081548092919061081690611e50565b91905055507f98eb45068e1da1f9cc96add03ccb87a8e8e684d20bda8390a73c006f780ebae18585858585604051610852959493929190611e98565b60405180910390a15050505050565b60008054906101000a900473ffffffffffffffffffffffffffffffffffffffff1673ffffffffffffffffffffffffffffffffffffffff163373ffffffffffffffffffffffffffffffffffffffff16146108ef576040517f08c379a00000000000000000000000000000000000000000000000000000000081526004016108e690611914565b60405180910390fd5b600073ffffffffffffffffffffffffffffffffffffffff168173ffffffffffffffffffffffffffffffffffffffff160361095e576040517f08c379a000000000000000000000000000000000000000000000000000000000815260040161095590611f53565b60405180910390fd5b7ff8ccb027dfcd135e000e9d45e6cc2d662578a8825d4c45b5e32e0adf67e79ec660008054906101000a900473ffffffffffffffffffffffffffffffffffffffff16826040516109af929190611f73565b60405180910390a1806000806101000a81548173ffffffffffffffffffffffffffffffffffffffff021916908373ffffffffffffffffffffffffffffffffffffffff16021790555050565b6000600354905090565b6000600182604051610a169190611970565b908152602001604051809103902060050160159054906101000a900460ff16610a425760009050610a74565b600182604051610a529190611970565b908152602001604051809103902060050160149054906101000a900460ff1690505b919050565b600181805160208101820180518482526020830160208501208183528095505050505050600091509050806000018054610ab290611871565b80601f0160208091040260200160405190810160405280929190818152602001828054610ade90611871565b8015610b2b5780601f10610b0057610100808354040283529160200191610b2b565b820191906000526020600020905b815481529060010190602001808311610b0e57829003601f168201915b505050505090806001018054610b4090611871565b80601f0160208091040260200160405190810160405280929190818152602001828054610b6c90611871565b8015610bb95780601f10610b8e57610100808354040283529160200191610bb9565b820191906000526020600020905b815481529060010190602001808311610b9c57829003601f168201915b505050505090806002018054610bce90611871565b80601f0160208091040260200160405190810160405280929190818152602001828054610bfa90611871565b8015610c475780601f10610c1c57610100808354040283529160200191610c47565b820191906000526020600020905b815481529060010190602001808311610c2a57829003601f168201915b505050505090806003018054610c5c90611871565b80601f0160208091040260200160405190810160405280929190818152602001828054610c8890611871565b8015610cd55780601f10610caa57610100808354040283529160200191610cd5565b820191906000526020600020905b815481529060010190602001808311610cb857829003601f168201915b5050505050908060040154908060050160009054906101000a900473ffffffffffffffffffffffffffffffffffffffff16908060050160149054906101000a900460ff16908060050160159054906101000a900460ff16905088565b6060806060806000806000600188604051610d4c9190611970565b908152602001604051809103902060050160159054906101000a900460ff16610daa576040517f08c379a0000000000000000000000000000000000000000000000000000000008152600401610da1906119d3565b60405180910390fd5b6000600189604051610dbc9190611970565b908152602001604051809103902060405180610100016040529081600082018054610de690611871565b80601f0160208091040260200160405190810160405280929190818152602001828054610e1290611871565b8015610e5f5780601f10610e3457610100808354040283529160200191610e5f565b820191906000526020600020905b815481529060010190602001808311610e4257829003601f168201915b50505050508152602001600182018054610e7890611871565b80601f0160208091040260200160405190810160405280929190818152602001828054610ea490611871565b8015610ef15780601f10610ec657610100808354040283529160200191610ef1565b820191906000526020600020905b815481529060010190602001808311610ed457829003601f168201915b50505050508152602001600282018054610f0a90611871565b80601f0160208091040260200160405190810160405280929190818152602001828054610f3690611871565b8015610f835780601f10610f5857610100808354040283529160200191610f83565b820191906000526020600020905b815481529060010190602001808311610f6657829003601f168201915b50505050508152602001600382018054610f9c90611871565b80601f0160208091040260200160405190810160405280929190818152602001828054610fc890611871565b80156110155780601f10610fea57610100808354040283529160200191611015565b820191906000526020600020905b815481529060010190602001808311610ff857829003601f168201915b50505050508152602001600482015481526020016005820160009054906101000a900473ffffffffffffffffffffffffffffffffffffffff1673ffffffffffffffffffffffffffffffffffffffff1673ffffffffffffffffffffffffffffffffffffffff1681526020016005820160149054906101000a900460ff161515151581526020016005820160159054906101000a900460ff1615151515815250509050806000015181602001518260400151836060015184608001518560a001518660c00151975097509750975097509750975050919395979092949650565b60006001836040516111059190611970565b908152602001604051809103902060050160159054906101000a900460ff16611163576040517f08c379a000000000000000000000000000000000000000000000000000000000815260040161115a906119d3565b60405180910390fd5b816040516020016111749190611970565b6040516020818303038152906040528051906020012060018460405161119a9190611970565b90815260200160405180910390206003016040516020016111bb919061201f565b6040516020818303038152906040528051906020012014905092915050565b60008054906101000a900473ffffffffffffffffffffffffffffffffffffffff1681565b6000604051905090565b600080fd5b600080fd5b6000819050919050565b61122581611212565b811461123057600080fd5b50565b6000813590506112428161121c565b92915050565b60006020828403121561125e5761125d611208565b5b600061126c84828501611233565b91505092915050565b600081519050919050565b600082825260208201905092915050565b60005b838110156112af578082015181840152602081019050611294565b60008484015250505050565b6000601f19601f8301169050919050565b60006112d782611275565b6112e18185611280565b93506112f1818560208601611291565b6112fa816112bb565b840191505092915050565b6000602082019050818103600083015261131f81846112cc565b905092915050565b600080fd5b600080fd5b7f4e487b7100000000000000000000000000000000000000000000000000000000600052604160045260246000fd5b611369826112bb565b810181811067ffffffffffffffff8211171561138857611387611331565b5b80604052505050565b600061139b6111fe565b90506113a78282611360565b919050565b600067ffffffffffffffff8211156113c7576113c6611331565b5b6113d0826112bb565b9050602081019050919050565b82818337600083830152505050565b60006113ff6113fa846113ac565b611391565b90508281526020810184848401111561141b5761141a61132c565b5b6114268482856113dd565b509392505050565b600082601f83011261144357611442611327565b5b81356114538482602086016113ec565b91505092915050565b60006020828403121561147257611471611208565b5b600082013567ffffffffffffffff8111156114905761148f61120d565b5b61149c8482850161142e565b91505092915050565b6114ae81611212565b82525050565b60006020820190506114c960008301846114a5565b92915050565b600080600080600060a086880312156114eb576114ea611208565b5b600086013567ffffffffffffffff8111156115095761150861120d565b5b6115158882890161142e565b955050602086013567ffffffffffffffff8111156115365761153561120d565b5b6115428882890161142e565b945050604086013567ffffffffffffffff8111156115635761156261120d565b5b61156f8882890161142e565b935050606086013567ffffffffffffffff8111156115905761158f61120d565b5b61159c8882890161142e565b92505060806115ad88828901611233565b9150509295509295909350565b600073ffffffffffffffffffffffffffffffffffffffff82169050919050565b60006115e5826115ba565b9050919050565b6115f5816115da565b811461160057600080fd5b50565b600081359050611612816115ec565b92915050565b60006020828403121561162e5761162d611208565b5b600061163c84828501611603565b91505092915050565b60008115159050919050565b61165a81611645565b82525050565b60006020820190506116756000830184611651565b92915050565b611684816115da565b82525050565b60006101008201905081810360008301526116a5818b6112cc565b905081810360208301526116b9818a6112cc565b905081810360408301526116cd81896112cc565b905081810360608301526116e181886112cc565b90506116f060808301876114a5565b6116fd60a083018661167b565b61170a60c0830185611651565b61171760e0830184611651565b9998505050505050505050565b600060e082019050818103600083015261173e818a6112cc565b9050818103602083015261175281896112cc565b9050818103604083015261176681886112cc565b9050818103606083015261177a81876112cc565b905061178960808301866114a5565b61179660a083018561167b565b6117a360c0830184611651565b98975050505050505050565b600080604083850312156117c6576117c5611208565b5b600083013567ffffffffffffffff8111156117e4576117e361120d565b5b6117f08582860161142e565b925050602083013567ffffffffffffffff8111156118115761181061120d565b5b61181d8582860161142e565b9150509250929050565b600060208201905061183c600083018461167b565b92915050565b7f4e487b7100000000000000000000000000000000000000000000000000000000600052602260045260246000fd5b6000600282049050600182168061188957607f821691505b60208210810361189c5761189b611842565b5b50919050565b7f4f6e6c792061646d696e2063616e20706572666f726d2074686973206163746960008201527f6f6e000000000000000000000000000000000000000000000000000000000000602082015250565b60006118fe602283611280565b9150611909826118a2565b604082019050919050565b6000602082019050818103600083015261192d816118f1565b9050919050565b600081905092915050565b600061194a82611275565b6119548185611934565b9350611964818560208601611291565b80840191505092915050565b600061197c828461193f565b915081905092915050565b7f436572746966696361746520646f6573206e6f74206578697374000000000000600082015250565b60006119bd601a83611280565b91506119c882611987565b602082019050919050565b600060208201905081810360008301526119ec816119b0565b9050919050565b7f436572746966696361746520616c7265616479207265766f6b65640000000000600082015250565b6000611a29601b83611280565b9150611a34826119f3565b602082019050919050565b60006020820190508181036000830152611a5881611a1c565b9050919050565b7f436572746966696361746520616c726561647920657869737473000000000000600082015250565b6000611a95601a83611280565b9150611aa082611a5f565b602082019050919050565b60006020820190508181036000830152611ac481611a88565b9050919050565b7f43657274696669636174652049442063616e6e6f7420626520656d7074790000600082015250565b6000611b01601e83611280565b9150611b0c82611acb565b602082019050919050565b60006020820190508181036000830152611b3081611af4565b9050919050565b7f436572746966696361746520686173682063616e6e6f7420626520656d707479600082015250565b6000611b6d602083611280565b9150611b7882611b37565b602082019050919050565b60006020820190508181036000830152611b9c81611b60565b9050919050565b60008190508160005260206000209050919050565b60006020601f8301049050919050565b600082821b905092915050565b600060088302611c057fffffffffffffffffffffffffffffffffffffffffffffffffffffffffffffffff82611bc8565b611c0f8683611bc8565b95508019841693508086168417925050509392505050565b6000819050919050565b6000611c4c611c47611c4284611212565b611c27565b611212565b9050919050565b6000819050919050565b611c6683611c31565b611c7a611c7282611c53565b848454611bd5565b825550505050565b600090565b611c8f611c82565b611c9a818484611c5d565b505050565b5b81811015611cbe57611cb3600082611c87565b600181019050611ca0565b5050565b601f821115611d0357611cd481611ba3565b611cdd84611bb8565b81016020851015611cec578190505b611d00611cf885611bb8565b830182611c9f565b50505b505050565b600082821c905092915050565b6000611d2660001984600802611d08565b1980831691505092915050565b6000611d3f8383611d15565b9150826002028217905092915050565b611d5882611275565b67ffffffffffffffff811115611d7157611d70611331565b5b611d7b8254611871565b611d86828285611cc2565b600060209050601f831160018114611db95760008415611da7578287015190505b611db18582611d33565b865550611e19565b601f198416611dc786611ba3565b60005b82811015611def57848901518255600182019150602085019450602081019050611dca565b86831015611e0c5784890151611e08601f891682611d15565b8355505b6001600288020188555050505b505050505050565b7f4e487b7100000000000000000000000000000000000000000000000000000000600052601160045260246000fd5b6000611e5b82611212565b91507fffffffffffffffffffffffffffffffffffffffffffffffffffffffffffffffff8203611e8d57611e8c611e21565b5b600182019050919050565b600060a0820190508181036000830152611eb281886112cc565b90508181036020830152611ec681876112cc565b90508181036040830152611eda81866112cc565b90508181036060830152611eee81856112cc565b9050611efd60808301846114a5565b9695505050505050565b7f496e76616c696420616464726573730000000000000000000000000000000000600082015250565b6000611f3d600f83611280565b9150611f4882611f07565b602082019050919050565b60006020820190508181036000830152611f6c81611f30565b9050919050565b6000604082019050611f88600083018561167b565b611f95602083018461167b565b9392505050565b60008154611fa981611871565b611fb38186611934565b94506001821660008114611fce5760018114611fe357612016565b60ff1983168652811515820286019350612016565b611fec85611ba3565b60005b8381101561200e57815481890152600182019150602081019050611fef565b838801955050505b50505092915050565b600061202b8284611f9c565b91508190509291505056fea26469706673582212200430a5a7863d221a9b78fa7d2358423e504d6e3735e0d28410eb12e995b3d89164736f6c63430008180033",
  "linkReferences": {},
  "deployedLinkReferences": {}
}